:02389A0036B046
:02389C00384FA3
:02389E00271CE5
:0238A0002EF107
:0238A2002D45B2
:0238A40026708C
:0238A6002BC431
:03000B000219E5F2
:1019E000C2AF80FE321219E485D00B75D008AAE090
:1019F000C28CE58A24F7F58AE58C34D8F58CD28C34
:101A0000EC2433F8E6BC060274FFC39581B41400DD
:101A100040CE7907782416E608700BC2AFE630E1B5
:101A2000034418F6D2AF08D9EDEA8BD0301B01225F
:101A3000D50DFCC0E0C0D0C0F0C083C082C000C0E3
:101A400001C002C003C004C005C006C007E50C23E6
:101A50002425F87440C2AF46F6D2AFD21BE50CFF86
:101A6000232425F80F0808BF07047F007825E630F7
:101A7000E4F200E50CC39F5020050C7432250CF8ED
:101A8000E6FDA68108E6AE0CBE060274FFCDF8E8BE
:101A90006D60E008E6C0E080F6E50CD39F4027E5E6
:101AA0000C2433F8E6AE0CBE060274FFFD18E6CD3A
:101AB000F8E5816D6006D0E0F61880F5E50C24327B
:101AC000C8F6150C80D3750D05E50C232425F87F89
:101AD00004C2AFE610E61E30E00310E20C7F0030D7
:051AE000E10730E30402
:101AE5007F0854F4547CC6D2AF54804207C21B22EF
:101AF500F6D2AFD007D006D005D004D003D002D09F
:101B050001D000D082D083D0F0D0D0D0E0C21B224B
:101B15007832A68174066006FF0876FFDFFB7F0733
:101B2500E47824F608F608DFFA7825763090389AB6
:101B3500740193C0E0E493C0E0750D054389017518
:0D1B45008AF0758CD8D28CD2AFD2A92206BE
:0E3437004204260000420428001E4104250025
:103764009002D57403F0E49002D4F07B017A0279DC
:06377400D47F03021CC318
:103469009002D47440F0A37401F0A3120A3300014E
:10347900C2009002DB7401F0E4A3F07B017A0279C7
:10348900D47F01120AF87D017F011233BC53A23F98
:013499002210
:05002600E4FF02379029
:08000300E4FF12377A0238D045
:1037A60043BA80123764123469D2AF12382D1238F8
:0437B600A80238C36A
:1036B0001237A67F01121B527F03121B527F041286
:0C36C0001B527F05121B52E4FF021BDBB3
:0F384F001238F31236CC7D027F02121C6480F413
:102AF300900014E064017024900425E07006FF1236
:102B0300377A8005E4FF123790900425E070047F44
:102B13000180027F00900425EFF08010900014E004
:102B2300B402097DC87C007F031231A9900014E030
:102B330024F9601224F460112410701F900428E01B
:102B4300FEA3E0FF80120235D9900015E0FF7E005E
:0B2B5300900428EEF0A3EFF01234FB1A
:012B5E002254
:102EF100900004E0D394004040E014F0703B900057
:102F010003E0D39400402D122AF3E49002E9F090FB
:102F11000003E0FF9002E9E0FEC39F501774142EF6
:102F2100F582E43400F583E0FF12386D9002E9E0A8
:102F310004F080DBE4900003F07D027F02121C6448
:022F410080AE60
:10352B002D3E20002530325820000A00BDE1CAF89C
:10353B00D1B2CFDF0A00BFAACABCD1B2CFDF0A001B
:0F354B00782D3E25642C09792D3E25640D0A004C
:08344500410432004104310092
:0C38D000D2C07D017F02121C64C2C02225
:10355A009003107403F0E490030FF07B017A03796F
:10356A000F7F01121CC39003107401F0E490030F43
:0C357A00F07B017A03790F7F04021CC370
:10349A0090030F7440F0A37402F0A3120A330000E1
:1034AA0025809003167401F0E4A3F07B017A037976
:1034BA000F7F02120AF87D017F0112323453BAFEDD
:0134CA0022DF
:0B212700900311EBF0A3EAF0A3E9F035
:10213200EDC3940850030222CC7BFF7A35792B122F
:1021420011B6E4900314F0900314E0FFC394085016
:102152002D900311E0FBA3E0FAA3E0F98F827583CF
:102162000012072DFF9003B2E4F0A3EFF07BFF7A99
:1021720035792F1211B6900314E004F080C97BFF69
:102182007A3579351211B6900311E0FBA3E0FAA378
:10219200E0F912071464DD60030222CC9000011200
:1021A200072D647760030222CC90000412072D648D
:1021B200017024FF12377A7DC87C007F021231A998
:1021C200E4FF12379090042AE070047F0180027FBE
:1021D2000090042AEFF022123690EF6002804A90BB
:1021E2000311E0FBA3E0FAA3E0F990000512072D2A
:1021F200B40108E4FDFC7F19FE801C900311E0FB92
:10220200A3E0FAA3E0F990000612072DB401127DB3
:10221200017C007F197E0012284F9004327401F075
:1022220022900432E06005E4F00235D9900311E017
:10223200FBA3E0FAA3E0F990000712072D640170F6
:1022420036900431E060101235D97F02121BDB7B1D
:10225200FF7A357937800B7F02121B527BFF7A356A
:1022620079411211B6900431E070047F0180027F3F
:1022720000900431EFF022900311E0FBA3E0FAA3F7
:10228200E0F990000212072DFF90042FF090000356
:1022920012072DFE900430F07BFF7A35794BEFFC6C
:1022A2003395E09003B2F0A3CCF0EEFE3395E0A3B9
:1022B200F0A3CEF01211B690042FE0FF3395E0FEAA
:0A22C200A3E0FD3395E0FC12255364
:0122CC0022EF
:102B5F00900008E0900310F0E490030FF09000084D
:102B6F00E0FF14FE90030FE0FDC39E504774942DB9
:102B7F00F582E43400F583E0B4DD3174952DF582F0
:102B8F00E43400F583E0B4772390030FE0FEC3EF46
:102B9F009EC39408401E74942EF9E43400FA7B010E
:102BAF007D0812212790030FE02407F090030FE018
:042BBF0004F080A9F5
:012BC30022EF
:102D450012355A12349A900009E0D394004040E0BD
:102D550014F0703B900008E0D39400402D122B5FD7
:102D6500E490030EF0900008E0FF90030EE0FEC330
:102D75009F501774942EF582E43400F583E0FF121A
:102D8500385E90030EE004F080DBE4900008F07DEF
:082D9500027F02121C6480AEF3
:10271C0012390490042AE0601CE4FFFE7DA07C4189
:10272C0090042BE0F8A3E0F9A3E0FAA3E0FB12027B
:10273C003C50028006123690EF60051235D9801598
:10274C00122C29900345EEF0A3EFF0A3E0B5060E92
:10275C00A3E0B507097D027F02121C6480B59003CB
:10276C0045E0FEA3E0FFA3EEF0A3EFF0C3EE648020
:10277C0094805008E4FDFC7F28FE8019D39003461A
:10278C00E09400900345E064809480400D7D017CD2
:10279C00007F287E0012284F80077F287E0012348D
:0B27AC00FB7D027F02121C6402271F4D
:1035860064697374616E63653A20252E3366206321
:103596006D0A00B2E2BEE0CAA7B0DC3A20252E339F
:0A35A60066205273743A25640A008F
:0B344D0041042A0044042BBF80000053
:1026700012383E90042AE070097D287F02121C6403
:1026800080F17B017A03797112241A900375EFF0BF
:1026900070567BFF7A357986900371E0FCA3E0FDEC
:1026A000A3E0FEA3E0FF9003B2120A271211B69036
:1026B0000371E0FCA3E0FDA3E0FEA3E0FF90042B88
:1026C000120A27E4FFFE7DA07C41900371E0F8A38D
:1026D000E0F9A3E0FAA3E0FB12023C50357D647CF4
:1026E000007F021231A9802A7BFF7A357999900305
:1026F00071E0FCA3E0FDA3E0FEA3E0FF9003B212B3
:102700000A27900375E0FF9003B6E4F0A3EFF01200
:0C27100011B67D287F02121C64022673A3
:10004600766F6C746167653A20252E336620560AF2
:10005600004261747465727920766F6C74616765AD
:1000660020697320746F6F206C6F772C20706C651D
:10007600617365206368617267652069743A20253B
:050086002E32660A00A5
:10369000E4FFFE7D307C41900433E0F8A3E0F9A321
:1036A000E0FAA3E0FB12023C50037F01227F0022DC
:102BC40012390B122E49900433120A277BFF7A0024
:102BD4007946900433E0FCA3E0FDA3E0FEA3E0FF0C
:102BE4009003B2120A271211B6123690EF60267BB8
:102BF400FF7A007957900433E0FCA3E0FDA3E0FEE4
:102C0400A3E0FF9003B2120A271211B67D327C00B2
:102C14007F031231A97DC87F02121C647DC87F0224
:052C2400121C64809EFB
:07374D007FFA1237547FFAE6
:0F3754007D607C09ED1D70011C144C70F7DFF1D6
:013763002243
:0B38E800AE0712374D12374DDEF822FC
:101CC300EFD3940740037FFF22120714FED394033C
:101CD30040037FFF22EF7041EE700B90000112076B
:101CE3002DF452935294120714B4010B9000011275
:101CF300072D4293F45294120714FEB4020A900083
:101D03000112072D42934294EEB4030D9000011289
:101D1300072DFEF45293EE4294EF640170431207D1
:101D230014FE700B90000112072DF452915292EEA3
:101D3300B4010B90000112072D4291F45292120745
:101D430014B4020A90000112072D42914292120725
:101D530014B4030D90000112072DFEF45291EE42CC
:101D630092EF64027043120714FE700B900001128D
:101D7300072DF452955296EEB4010B900001120711
:101D83002D4295F45296120714B4020A90000112E0
:101D9300072D42954296120714B4030D90000112C9
:101DA300072DFEF45295EE4296EF6403704312073B
:101DB30014FE700B90000112072DF452B152B2EED3
:101DC300B4010B90000112072D42B1F452B2120775
:101DD30014B4020A90000112072D42B142B2120755
:101DE30014B4030D90000112072DFEF452B1EE421C
:101DF300B2EF64047043120714FE700B90000112DB
:101E0300072DF452B352B4EEB4010B900001120744
:101E13002D42B3F452B4120714B4020A9000011213
:101E2300072D42B342B4120714B4030D90000112FC
:101E3300072DFEF452B3EE42B4EF6405704312076C
:101E430014FE700B90000112072DF452C952CAEE12
:101E5300B4010B90000112072D42C9F452CA1207B4
:101E630014B4020A90000112072D42C942CA120794
:101E730014B4030D90000112072DFEF452C9EE4273
:101E8300CAEF64067043120714FE700B9000011230
:101E9300072DF452CB52CCEEB4010B900001120784
:101EA3002D42CBF452CC120714B4020A9000011253
:101EB300072D42CB42CC120714B4030D900001123C
:101EC300072DFEF452CBEE42CCEF640770431207AA
:101ED30014FF700B90000112072DF452E152E2EF50
:101EE300B4010B90000112072D42E1F452E21207F4
:101EF30014B4020A90000112072D42E142E21207D4
:101F030014B4030D90000112072DFFF452E1EF42C8
:041F1300E27F002247
:10327700EFD3940140037FFF22EDD3940340037FF4
:10328700FF22EF7004C2A98002D2A9ED700553B7DF
:10329700FDC2B9EDB4010553B7FDD2B9EDB40205CE
:1032A70043B702C2B9EDB4030543B702D2B97F00F1
:0132B70022F4
:1032B800EFD3940140037FFF22EDD3940340037FB3
:1032C800FF22EF7004C2AB8002D2ABED700553B79A
:1032D800F7C2BBEDB4010553B7F7D2BBEDB4020595
:1032E80043B708C2BBEDB4030543B708D2BB7F00A0
:0132F80022B3
:10364C00EFD3940140037FFF22EDD3940340037F1B
:10365C00FF22EF25E025E0FFE5AF54FB4FF5AFE48B
:02366C00FF223B
:10366E00EFD3940140037FFF22EDD3940340037FF9
:10367E00FF22EFC43354E0FFE5AF54DF4FF5AFE464
:02368E00FF2219
:10362900EFD3940140037FFF22EDD3940340037F3E
:10363900FF22EFC4333354C0FFE5AF54BF4FF5AF9A
:03364900E4FF2279
:1032F900EFD3940140037FFF22EDD3940340037F72
:10330900FF22EF7004C2A88002D2A8ED700553B75E
:10331900FEC2B8EDB4010553B7FED2B8EDB402054B
:1033290043B701C2B8EDB4030543B701D2B87F0072
:013339002271
:10333A00EFD3940140037FFF22EDD3940340037F30
:10334A00FF22EF7004C2AA8002D2AAED700553B719
:10335A00FBC2BAEDB4010553B7FBD2BAEDB402050C
:10336A0043B704C2BAEDB4030543B704D2BA7F0027
:01337A002230
:10373500EFD3940140037FFF22EFC454F0FFE58FE0
:0837450054EF4FF58FE4FF2261
:10371C00EFD3940140037FFF22EFC43354E0FFE565
:09372C008F54DF4FF58FE4FF22FA
:10370200EFD3940140037FFF22EFC4333354C0FF51
:0A371200E58F54BF4FF58FE4FF224E
:10337B00EFD3940140037FFF22EDD3940340037FEF
:10338B00FF22EF7004C2AD8002D2ADED700553B7D2
:10339B00DFC2BDEDB4010553B7DFD2BDEDB40205FD
:1033AB0043B720C2BDEDB4030543B720D2BD7F00A8
:0133BB0022EF
:10308500EDD3940340037FFF22EF30E10543E620B3
:10309500800353E6DFEF30E00543E610800353E697
:1030A500EFED700653B6DF53B5DFEDB4010653B649
:1030B500DF43B520EDB4020643B62053B5DFEDB4CA
:0B30C500030643B62043B5207F002225
:102C8C00EFD3940140037FFF22EBD3940340037FE7
:102C9C00FF22EFB40112ED90FE817006E0547FF03C
:102CAC008011E04480F0800BEF700890FE83E054BC
:102CBC00874DF0EB700653B6DF53B5DFEBB401066E
:102CCC0053B6DF43B520EBB4020643B62053B5DF51
:0D2CDC00EBB4030643B62043B5207F002271
:1033BC00EFD3940140037FFF22EDD3940340037FAE
:1033CC00FF22EF7004C2AC8002D2ACED700553B793
:1033DC00EFC2BCEDB4010553B7EFD2BCEDB402059E
:1033EC0043B710C2BCEDB4030543B710D2BC7F0089
:0133FC0022AE
:10323400EFD3940140037FFF22EDD3940340037F37
:10324400FF22E5AF54FE4FF5AFED700653B6FE53C3
:10325400B5FEEDB4010653B6FE43B501EDB4020666
:1032640043B60153B5FEEDB4030643B60143B501BD
:033274007F0022B6
:1030D000EFD3940140037FFF22EDD3940340037F9D
:1030E000FF22EF33333354F8FFE5AF54F74FF5AF1A
:1030F000ED700653EEFE53DFFEEDB4010653EEFE17
:1031000043DF01EDB4020643EE0153DFFEEDB403ED
:0A3110000643EE0143DF017F0022B9
:10311A00EFD3940140037FFF22EDD3940340037F52
:10312A00FF22EFC454F0FFE5AF54EF4FF5AFED7057
:10313A000653EEFD53DFFDEDB4010653EEFD43DF0A
:10314A0002EDB4020643EE0253DFFDEDB40306437B
:08315A00EE0243DF027F0022B8
:10316200EFD3940140037FFF22EDD3940340037F0A
:10317200FF22EF25E0FFE5AF54FD4FF5AFED7006FE
:1031820053B6FD53B5FDEDB4010653B6FD43B5028A
:10319200EDB4020643B60253B5FDEDB4030643B6E1
:0731A2000243B5027F002289
:1029FC00EFD3948140037FFF22EBD3940340037FFA
:102A0C00FF22EF247F603204705D90FEC4EDF0EB8A
:102A1C00700653B6FB53B5FBEBB4010653B6FB4340
:102A2C00B504EBB4020643B60453B5FBEB64037078
:102A3C003B43B60443B504803390FEE4EDF0EB70F9
:102A4C000653B6F753B5F7EBB4010653B6F743B5D7
:102A5C0008EBB4020643B60853B5F7EBB4030D43C9
:0F2A6C00B60843B508800590FEE4EDF07F002228
:1033FD00EDD394035029ED700653EEFB53DFFBED37
:10340D00B4010653EEFB43DF04EDB4020643EE04B4
:10341D0053DFFBEDB4030B43EE0443DF0480037F66
:0A342D00FF2290FE62EFF07F002204
:030023000230396F
:10303900C0E0C083C082C0D075D000C007309827D7
:10304900C298900003E0C394804002E4F09000032A
:10305900E0FF04F074142FF582E43400F583E59958
:10306900F09000047405F0309907C299900002E4C9
:0C307900F0D007D0D0D082D083D0E0325D
:03004300022F4346
:102F4300C0E0C083C082C0D075D000C007E59A300E
:102F5300E028539AFE900008E0C394804002E4F016
:102F6300900008E0FF04F074942FF582E43400F538
:102F730083E59BF09000097405F0E59A30E108536E
:102F83009AFD900007E4F0D007D0D0D082D083D050
:022F9300E0322A
:03008B00022F95AC
:102F9500C0E0C083C082C0D075D000C007E5AC30AA
:102FA500E02853ACFE90000DE0C394404002E4F0ED
:102FB50090000DE0FF04F074142FF582E43401F560
:102FC50083E5ADF090000E7405F0E5AC30E10853F3
:102FD500ACFD90000CE4F0D007D0D0D082D083D0E7
:022FE500E032D8
:03009300022FE752
:102FE700C0E0C083C082C0D075D000C007E5843080
:102FF700E0285384FE900012E0C394204002E4F0DE
:10300700900012E0FF04F074D42FF582E43401F548
:1030170083E585F09000137405F0E58430E10853EB
:1030270084FD900011E4F0D007D0D0D082D083D0B7
:02303700E03285
:102DF40090000112072DFFE5DE54F04FF5DE900040
:102E04000212072DC43354E0FFE5DE54DF4FF5DE34
:102E1400120714FFD3941F502B90000312072DFEAA
:102E2400D39401501F90000412072DFDD394035036
:102E340013EDC43354E0FDEEC433333354804D4FAB
:052E440090FEA8F02241
:0C38DC00EFB4010443BC802253BC7F22E7
:102A7B00EFD3940F4002806BE4F5BDF5BEE5BC547B
:102A8B00F044404FF5BC00000000000000000000C7
:102A9B00E4FDE5BC30E54753BCDFE5DEAFBD30E51B
:102AAB000DEFFEACBEECFBEBFF9003B3802290036B
:102ABB00B3E4F0A3EFF0E5BEC4540FFBE0C4F8544D
:102ACB000FC868FF9003B3E0C454F048FEEF4BFF10
:102ADB00EEF0A3EFF09003B3E0FEA3E0FF220DEDC9
:072AEB00B4FAAF7E107F007A
:012AF20022C1
:03002B0002391B7C
:04391B0053BCDF3288
:1015CE00AD07ED6401707A90FECCE054FEF0E0546D
:1015DE00FBF090FEC8E054FCF0120714FF90FEC81A
:1015EE00E0548F4FF090000612072DFF90FECC3086
:1015FE00E00DE04401F090FEB1E04401F0800BE01C
:10160E0054FEF090FEB1E054FEF0EF90FECC30E1CF
:10161E000DE04404F090FEB1E04402F0800BE05483
:10162E00FBF090FEB1E054FDF0900003120856E579
:10163E00F090FED5F090000312085690FED60219D7
:10164E0088ED6402707A90FECCE054EFF0E054BF67
:10165E00F090FEC9E054FCF0120714FF90FEC9E0B2
:10166E00548F4FF090000612072DFF90FECC30E203
:10167E000DE04410F090FEB1E04404F0800BE05415
:10168E00EFF090FEB1E054FBF0EF90FECC30E30DA6
:10169E00E04440F090FEB1E04408F0800BE054BF0F
:1016AE00F090FEB1E054F7F0900003120856E5F00A
:1016BE0090FED7F090000312085690FED8021988BB
:1016CE00ED6403707A90FECDE054FEF0E054FBF032
:1016DE0090FECAE054FCF0120714FF90FECAE054CC
:1016EE008F4FF090000612072DFF90FECD30E40DC7
:1016FE00E04401F090FEB1E04410F0800BE054FEA7
:10170E00F090FEB1E054EFF0EF90FECD30E50DE03D
:10171E004404F090FEB1E04420F0800BE054FBF066
:10172E0090FEB1E054DFF0900003120856E5F09001
:10173E00FED9F090000312085690FEDA021988EDD9
:10174E006404707A90FECDE054EFF0E054BFF09058
:10175E00FECBE054FCF0120714FF90FECBE0548F4A
:10176E004FF090000612072DFF90FECD30E60DE0F3
:10177E004410F090FEB1E04440F0800BE054EFF0E6
:10178E0090FEB1E054BFF0EF90FECD30E70DE04497
:10179E0040F090FEB1E04480F0800BE054BFF0903A
:1017AE00FEB1E0547FF0900003120856E5F090FE73
:1017BE00DBF090000312085690FEDC021988ED64EF
:1017CE0080704F90000512072D90FEDEF090000104
:1017DE00120856E5F090FED2F090000112085690D5
:1017EE00FED3F090000812072D90FEDDB40106E046
:1017FE004480F08004E0547FF090000712072D9093
:10180E00FEC0B40106E04401F08004E054FEF07F17
:10181E000022ED6405705690FEECE054FEF090FE52
:10182E00E8E054FCF0120714FF90FEE8E0548F4FEE
:10183E00F090000612072D90FEEC30E00DE0440112
:10184E00F090FEB5E04401F0800BE054FEF090FE07
:10185E00B5E054FEF0900003120856E5F090FEF548
:10186E00F090000312085690FEF6021988ED6406F9
:10187E00705690FEECE054EFF090FEE9E054FCF070
:10188E00120714FF90FEE9E0548F4FF090000612FD
:10189E00072D90FEEC30E20DE04410F090FEB5E026
:1018AE004404F0800BE054EFF090FEB5E054FBF0F2
:1018BE00900003120856E5F090FEF7F09000031228
:1018CE00085690FEF8021988ED6407705590FEEDEB
:1018DE00E054FEF090FEEAE054FCF0120714FF9084
:1018EE00FEEAE0548F4FF090000612072D90FEEDA9
:1018FE0030E40DE04401F090FEB5E04410F0800BB2
:10190E00E054FEF090FEB5E054EFF09000031208A4
:10191E0056E5F090FEF9F090000312085690FEFA8C
:10192E008058ED6408705790FEEDE054EFF090FE95
:10193E00EBE054FCF0120714FF90FEEBE0548F4FD7
:10194E00F090000612072D90FEED30E60DE04410EB
:10195E00F090FEB5E04440F0800BE054EFF090FEC6
:10196E00B5E054BFF0900003120856E5F090FEFB70
:10197E00F090000312085690FEFCF07F0022ED64FA
:10198E0081704C90000512072D90FEFEF090000124
:10199E00120856FDACF0EC90FEF2F0AF05A3EFF09E
:1019AE0090000812072D90FEFDB40106E04480F071
:1019BE008004E0547FF090000712072D90FEE0B4F3
:1019CE000106E04401F08004E054FEF07F00227F27
:0219DE00FF22E6
:1022CD00EF248070030223881470030223CD248031
:1022DD00B4080040030224199022F375F003A4C53D
:1022ED008325F0C5837302230B02231802232802D2
:1022FD002338022348022358022368022378120848
:10230D002BFDACF0EC90FED50224139000021208C8
:10231D0056FDACF0EC90FED7022413900004120889
:10232D0056FDACF0EC90FED9022413900006120875
:10233D0056FDACF0EC90FEDB022413900008120861
:10234D0056FDACF0EC90FEF502241390000A120835
:10235D0056FDACF0EC90FEF702241390000C120821
:10236D0056FDACF0EC90FEF902241390000E12080D
:10237D0056FDACF0EC90FEFB02241312082BFDACC5
:10238D00F0EC90FED5F0AF05A3EFF090000212082F
:10239D0056FDACF0EC90FED7F0AF05A3EFF090003A
:1023AD0004120856FDACF0EC90FED9F0AF05A3EF8A
:1023BD00F0900006120856FDACF0EC90FEDB804666
:1023CD00900008120856FDACF0EC90FEF5F0AF054C
:1023DD00A3EFF090000A120856FDACF0EC90FEF75A
:1023ED00F0AF05A3EFF090000C120856FDACF0EC29
:1023FD0090FEF9F0AF05A3EFF090000E120856FD18
:0D240D00ACF0EC90FEFBF0AF05A3EFF02269
:100AF800900319EBF0A3EAF0A3E9F0900318EFF0E4
:100B080064016003020CD6900000F0A3F0A3F0A3E8
:100B1800F0A3F090031CF0A3F090031CE0FEA3E008
:100B2800FFC39480EE9400501C74542FF582740116
:100B38003EF583E4F090031DE004F070DC90031CA4
:100B4800E004F080D4E490031CF0A3F090031CE0D0
:100B5800FEA3E0FFC39480EE9400501C74142FF59C
:100B68008274003EF583E4F090031DE004F070DC2D
:100B780090031CE004F080D4900319E0FBA3E0FA92
:100B8800A3E0F9120714FFE598543F4FF598EF6476
:100B9800C06008EF64406003020C819000021209F3
:100BA800F77F807E8D7D5B7C0012091990031E12F1
:100BB8000A27E4FFFE7D01FC90031EE0F8A3E0F99C
:100BC800A3E0FAA3E0FBC31209B940037FFF229018
:100BD800031EE0F8A3E0F9A3E0FAA3E0FBC3E49B5B
:100BE800FFE49AFE740199FDE498FC90031E120A32
:100BF80027900319E0FBA3E0FAA3E0F990000112A3
:100C0800072DFB64017038C28E538EFE5389BF5383
:100C180089CF438E4090031EE0FCA3E0FDA3E0FED5
:100C2800A3E0FF78081209CA8F8D90031EA3A3A31F
:100C3800E0F58BC2AB5389BF538FFDD28E8073EB27
:100C480064027032538EEF438E01538EF7438E0445
:100C580090031EE0FCA3E0FDA3E0FEA3E0FF7808FC
:100C68001209CA8FD690031EA3A3A3E0F5D753AFEA
:100C7800FB438E10803C7FFF22900319E0FBA3E02A
:100C8800FAA3E0F9120714FF701390000812072D59
:100C9800B40105438E20801A538EDF8015EFB4808F
:100CA8001190000812072DB4010543878080035373
:100CB800877F900319E0FBA3E0FAA3E0F99000070F
:100CC80012072D7004C29C8002D29C7F00229003E0
:100CD80018E064026003020E20900005F0A3F0A360
:100CE800F0A3F0A3F090031CF0A3F090031CE0FE27
:100CF800A3E0FFC39480EE9400501C74F42FF58297
:100D080074013EF583E4F090031DE004F070DC907C
:100D1800031CE004F080D4E490031CF0A3F09003DB
:100D28001CE0FEA3E0FFC39480EE9400501C749472
:100D38002FF58274003EF583E4F090031DE004F083
:100D480070DC90031CE004F080D4900319E0FBA34E
:100D5800E0FAA3E0F9120714FF64C06008EF6440EA
:100D68006003020DFEEFB4C005439A808003539AD6
:100D78007F9000021209F77F807E8D7D5B7C0012D8
:100D8800091990031E120A27E4FFFE7D01FC900357
:100D98001EE0F8A3E0F9A3E0FAA3E0FBC31209B947
:100DA80040037FFF2290031EE0F8A3E0F9A3E0FAD6
:100DB800A3E0FBC3E49BFFE49AFE740199FDE49869
:100DC800FC90031E120A27538EEF538EF7438E04AE
:100DD80090031EE0FCA3E0FDA3E0FEA3E0FF78087B
:100DE8001209CA8FD690031EA3A3A3E0F5D753AF69
:100DF800FB438E1080037FFF22900319E0FBA3E0E2
:100E0800FAA3E0F990000712072DC454F0FFE59A01
:100E180054EF4FF59A7F0022900318E064036003B3
:100E2800020FB490000AF0A3F0A3F0A3F0A3F0908F
:100E3800031CF0A3F090031CE0FEA3E0FFC3944062
:100E4800EE9400501C74742FF58274023EF583E40E
:100E5800F090031DE004F070DC90031CE004F080C7
:100E6800D4E490031CF0A3F090031CE0FEA3E0FF81
:100E7800C39440EE9400501C74142FF58274013E04
:100E8800F583E4F090031DE004F070DC90031CE0AF
:100E980004F080D4900319E0FBA3E0FAA3E0F91270
:100EA8000714FF64C06008EF64406003020F92EF0C
:100EB800B4C00543AC80800353AC7F900002120994
:100EC800F77F807E8D7D5B7C0012091990031E12CE
:100ED8000A27E4FFFE7D01FC90031EE0F8A3E0F979
:100EE800A3E0FAA3E0FBC31209B940037FFF2290F5
:100EF800031EE0F8A3E0F9A3E0FAA3E0FBC3E49B38
:100F0800FFE49AFE740199FDE498FC90031E120A0E
:100F180027900319E0FBA3E0FAA3E0F9900001127F
:100F2800072DFB6403702943AC4090031EE0FCA32B
:100F3800E0FDA3E0FEA3E0FF78081209CA8FD49071
:100F4800031EA3A3A3E0F5D553D1F043D10A803DF6
:100F5800EB64027032538EEF53ACBF538EF7438E5F
:100F68000490031EE0FCA3E0FDA3E0FEA3E0FF78ED
:100F7800081209CA8FD690031EA3A3A3E0F5D7537E
:100F8800AFFB438E1080067FFF227FFF229003195C
:100F9800E0FBA3E0FAA3E0F990000712072DC45480
:100FA800F0FFE5AC54EF4FF5AC7F0022900318E05A
:100FB8006404600302114890000FF0A3F0A3F0A3AB
:100FC800F0A3F090031CF0A3F090031CE0FEA3E054
:100FD800FFC39420EE9400501C74B42FF582740261
:100FE8003EF583E4F090031DE004F070DC90031CF0
:100FF800E004F080D4E490031CF0A3F090031CE01C
:10100800FEA3E0FFC39420EE9400501C74D42FF587
:101018008274013EF583E4F090031DE004F070DC77
:1010280090031CE004F080D4900319E0FBA3E0FADD
:10103800A3E0F9120714FF64C06008EF644060037E
:10104800021126EFB4C005438480800353847F9047
:1010580000021209F77F807E8D7D5B7C00120919E2
:1010680090031E120A27E4FFFE7D01FC90031EE098
:10107800F8A3E0F9A3E0FAA3E0FBC31209B940031F
:101088007FFF2290031EE0F8A3E0F9A3E0FAA3E0B3
:10109800FBC3E49BFFE49AFE740199FDE498FC907D
:1010A800031E120A27900319E0FBA3E0FAA3E0F954
:1010B80090000112072DFB640470294384409003BB
:1010C8001EE0FCA3E0FDA3E0FEA3E0FF7808120900
:1010D800CA8FD290031EA3A3A3E0F5D353D10F4325
:1010E800D1A0803DEB64027032538EEF5384BF531E
:1010F8008EF7438E0490031EE0FCA3E0FDA3E0FE00
:10110800A3E0FF78081209CA8FD690031EA3A3A3F1
:10111800E0F5D753AFFB438E1080067FFF227FFF99
:1011280022900319E0FBA3E0FAA3E0F9900007126C
:10113800072DC454F0FFE58454EF4FF5847F002257
:021148007FFF27
:01114A002282
:0F385E008F999000027401F0900002E070FA223E
:1037CE00120714FF600C12385E740129F9E43AFAFC
:0337DE0080EE2258
:0F386D008F9B9000077401F0900007E070FA2223
:1037E100120714FF600C12386D740129F9E43AFADA
:0337F10080EE2245
:0F387C008FAD90000C7401F090000CE070FA22F8
:1037F400120714FF600C12387C740129F9E43AFAB8
:0338040080EE2231
:0F388B008F859000117401F0900011E070FA2207
:10380700120714FF600C12388B740129F9E43AFA95
:0338170080EE221E
:05008E00AE0702385E20
:10382D0053937F43948053C9FB43CA04E4FF02378B
:01383D0090FA
:10377A00EF14600C14600C2402700AD287D2CA2299
:06378A00D28722D2CA2200
:10379000EF14600C14600C2402700AC287C2CA22A3
:0637A000C28722C2CA220A
:0434580041043901F1
:10381A009002E8EDF0E49002E7F07B017A0279E7A2
:03382A00021CC3BA
:0A38F3007D20E4FF12381AD285226E
:1036CC00A285E433FF900439E06F600EA285E433E9
:0B36DC00F030850302002612000322DC
:10000E009003B07408F09003AF7401F0FB7A03799B
:05001E00AFFF021CC34E
:1035B0009003AF741FF0E49003B2F0A304F0E49022
:1035C00003B0F0A304F0FB7A0379AF122DF47F016E
:0935D0001238DCE4FDFF02337B3C
:06390B0012000E0235B0AF
:102E49007F03122A7BAD07AC06E41202BAE4FBFA4F
:102E5900792078401200967B007AF0797F784512C4
:102E6900019F9003AF120A279003AFE0FCA3E0FD96
:102E7900A3E0FEA3E0FFE4FBFA79C07840120096D4
:102E89009003AF120A279003AFE0FCA3E0FDA3E093
:042E9900FEA3E0FFB5
:012E9D002212
:102CE9009003B37460F09003B6742EF0A374DFF010
:102CF900EF60047F4080027F009003B9EFF07B0111
:102D09007A0379B37F081215CE9003B4745DF0A3EA
:102D190074BFF0E49003B8F09003BB04F09003BAD9
:102D2900F0FB7A0379B37F811215CE90FEB6E05499
:0C2D39003F4440F0E4FBFD7F810229FCD8
:0E38A80053B1EF43B210E4FF122CE9C2B42278
:053911007F01022CE91A
:05391600E4FF022CE9B2
:0B31A9009003AFEFF0A3ECF0A3EDF0FB
:1031B400E4A3F09003AFE0FF9003B2E0C39F502B71
:1031C4001239117D147F02121C641239169003B057
:1031D400E0FEA3E0FF7C007D051207A0AD077F029F
:0B31E400121C649003B2E004F080C8ED
:0131EF0022BD
:0C38B600751D04751E1BD51EFDD51DFAE6
:0138C20022E3
:1037BA00E4FFFEB2B41238B60FBF00010EBE03F327
:0337CA00BFE8F065
:0137CD0022D9
:1034CB004543484FC0ADB8DFD0C5BAC5B3ACCAB1E0
:1034DB003A2025642075732C20CDCBB3F60A0065FA
:1034EB0063686F202D3E20252E3266206D730A00F7
:10383E0053B37F43B48043B10853B2F7C2C7C2B388
:01384E002257
:0638FD0075134ED513FD0A
:0139030022A1
:0B241A00900376EBF0A3EAF0A3E9F0DA
:10242500E4A3F0A3F0A3120A3300000000D2C71200
:1024350038FD1238FDC2C71238FD20B320D39003F2
:102445007AE0941E900379E0940050111238FDA3B0
:10245500E004F070E5900379E004F080DD90037905
:10246500E0FEA3E0FF7C007D0A12078EC3EF942CEB
:10247500EE9401401F7BFF7A3479CB900379E0FE1F
:10248500A3E0FF12078E9003B2EEF0A3EFF0121156
:10249500B67FFF22E4900379F0A3F030B31312382E
:1024A500FD90037AE004F070F2900379E004F08087
:1024B500EA900379E0FCA3E0FDE41202BA7B0A7A14
:1024C500D77923783C1200969003B2120A277BFF36
:1024D5007A3479EA1211B6900379E0FCA3E0FDE4C1
:1024E5001202BA7B7B7A14792E783E1200969003FD
:1024F5007B120A2790037BE0FCA3E0FDA3E0FEA38B
:10250500E0FF900376E0FBA3E0FAA3E0F91209DD12
:10251500E4FFFEFD7C4090037BE0F8A3E0F9A3E037
:10252500FAA3E0FB12023C50037F0122E4FFFE7D8B
:10253500C87C4390037BE0F8A3E0F9A3E0FAA3E0AD
:0D254500FB12023C600540037F02227F0074
:012552002266
:1036010000000000000000000000000000000000B9
:1036110000000000000000000000000000000000A9
:083621000000000000000000A1
:07345C004403EF3F19999AA8
:05002E00E0FEA3E0FF6D
:100033007C007D021207F5C374329FFFE49EFE220B
:101F170090035512002E900366EEF0A3EFF09003A6
:101F27005712002E900368EEF0A3EFF090035912BA
:101F3700002EAB07AA06A312002E90036AEEF0A3A9
:101F4700EFF0900355E07002A3E060047F01800288
:101F57007F0090036CEFF0900357E07002A3E060FE
:101F6700047F0180027F0090036DEFF0900359E03A
:101F77007002A3E060047F0180027F0090036EEF90
:101F8700F090035BE07002A3E060047F0180027FB2
:101F97000090036FEFF090036CE0700CA3E0700803
:101FA700A3E07004A3E060047F0180027F00900338
:101FB70070EFF090035D7460F0AE02AF03EE3395FF
:101FC700E0FDFCE47BBF7A5DF9F812088EE47B64E0
:101FD700FAF9F81231F0900360EEF0A3EFF09003F6
:101FE7006EE060047F0380027F00900363EFF07B65
:101FF700017A03795D7F011215CE90035D7460F05D
:1020070090036AE0FEA3E0FFEE3395E0FDFCE47B7E
:10201700BF7A5DF9F812088EE47B64FAF9F8123199
:10202700F0900360EEF0A3EFF090036FE060047FA1
:102037000C80027F00900363EFF07B017A03795DE8
:102047007F021215CE90035D7460F0900366E0FE88
:10205700A3E0FFEE3395E0FDFCE47BBF7A5DF9F882
:1020670012088EE47B64FAF9F81231F0900360EEFF
:10207700F0A3EFF090036CE060047F3080027F00F4
:10208700900363EFF07B017A03795D7F031215CE2E
:1020970090035D7460F0900368E0FEA3E0FFEE3309
:1020A70095E0FDFCE47BBF7A5DF9F812088EE47BCE
:1020B70064FAF9F81231F0900360EEF0A3EFF090B4
:1020C700036DE060047FC080027F00900363EFF040
:1020D7007B017A03795D7F041215CE90035E745DF0
:1020E700F0A374BFF0E4900362F0900370E09003F4
:1020F70065F0900364F07B017A03795D7F801215A8
:10210700CE90FEB2E054FC4401F0E054F34404F0F6
:10211700E054CFF0E0543FF0E4FBFD7F800229FC60
:0D38C30053910F4392F05395F043960F225E
:1034FB00900349EEF0A3EFF0A3EEF0A3EFF0A3EEF1
:10350B00F0A3EFF0A3EEF0A3EFF078557C037D0171
:10351B007B017A0379497E007F081206EE021F17A2
:082D9D0090041BEEF0A3EFF01F
:102DA500781D7C047D017BFF7A3679017E007F08E2
:102DB5001206EE90041BE0FEA3E0FFC3E49FFFE4D0
:102DC5009EFEA3F0A3EFF0A3EEF0A3EFF0A3EEF0C9
:102DD500A3EFF0A3EEF0A3EFF078557C037D017B24
:0F2DE500017A04791D7E007F081206EE021F1787
:0E27B700900403EEF0A3EFF0A3ECF0A3EDF01E
:1027C50078077C047D017BFF7A3679097E007F08D6
:1027D5001206EE900405E0FEA3E0FF64014E7018BA
:1027E500900403E0FCA3E0FD900409ECF0A3EDF0F8
:1027F500A3ECF0A3EDF0803CBEFF0DBFFF0A9004F3
:1028050003E0FEA3E0FF8016900403E0FEA3E0FFD3
:10281500900409EEF0A3EFF0A3EEF0A3EFF0C3E40C
:102825009FFFE49EFE900407F0A3EFF090040DEEE9
:10283500F0A3EFF078557C037D017B017A047907DD
:0A2845007E007F081206EE021F1746
:0E28E10090040FEEF0A3EFF0A3ECF0A3EDF0E7
:1028EF0078137C047D017BFF7A3679117E007F0897
:1028FF001206EE900411E0FEA3E0FF64014E6004A7
:10290F00EF4E701890040FE0FEA3E0FF900413EE5B
:10291F00F0A3EFF0900419EEF0A3EFF0900411E0A4
:10292F00FEA3E0FFF47002EEF46004EF4E701C9013
:10293F00040FE0FEA3E0FFC3E49FFFE49EFE9004BC
:10294F0015F0A3EFF0A3EEF0A3EFF078557C037D25
:10295F00017B017A0479137E007F081206EE021FB5
:01296F001750
:0E284F00900349EEF0A3EFF0A3ECF0A3EDF040
:10285D00784D7C037D017BFF7A3679197E007F08E8
:10286D001206EE90034BE07004A3E064019003495F
:10287D007021E0FEA3E0FF90034DEEF0A3EFF0908A
:10288D000351EEF0A3EFF0C3E49FFFE49EFE90032F
:10289D004F801FE0FEA3E0FFC3E49FFDE49EFC908C
:1028AD00034DF0A3EDF0900351ECF0A3EDF0900388
:1028BD004FEEF0A3EFF0900353EEF0A3EFF0785549
:1028CD007C037D017B017A03794D7E007F08120622
:0428DD00EE021F17D1
:0D2E9E00E0FEA3E0FF7B647A007D9C7CFFDA
:102EAB00900321EEF0A3EFF0A3ECF0A3EDF0900371
:102EBB0023E0FEA3E0FF900321E0FCA3E0FDC39F12
:102ECB00EE6480F8EC648098500122D3ED9BEA64A9
:102EDB0080F8EC6480984005AE02AF03229003218A
:062EEB00E0FEA3E0FF225F
:0E255300900315EEF0A3EFF0A3ECF0A3EDF073
:1025610078197C037D017BFF7A3679217E007F0813
:102571001206EE900315E0FEA3E0FFA3E0FCA3E04A
:10258100FD2FFFEC3EFEA3F0A3EFF0900315E0FA60
:10259100A3E0FBC3ED9BFDEC9AFC90031DF0A3EDC2
:1025A100F090031BECF0A3EDF090031FEEF0A3EF0E
:1025B100F0900319122E9EAC06AD07EC1202BA90F0
:1025C10003EFE0F8A3E0F9A3E0FAA3E0FB12009621
:1025D1001202F3900319EEF0A3EFF090031D122EF7
:1025E1009EAC06AD07EC1202BA9003EFE0F8A3E04F
:1025F100F9A3E0FAA3E0FB1200961202F390031D87
:10260100EEF0A3EFF090031B122E9EAC06AD07EC8B
:102611001202BA9003EFE0F8A3E0F9A3E0FAA3E015
:10262100FB1200961202F390031BEEF0A3EFF09061
:10263100031F122E9EAC06AD07EC1202BA9003EFF7
:10264100E0F8A3E0F9A3E0FAA3E0FB12009612027E
:10265100F390031FEEF0A3EFF078557C037D017B2F
:0F266100017A0379197E007F081206EE021F1717
:1035D900E4900349F0A3F0A3F0A3F0A3F0A3F0A3B0
:1035E900F0A3F078557C037D017B017A037949FECC
:0835F9007F081206EE021F1705
:053463004204370000E7
:073904005393F15394F122EB
:1036E700A281E43312075AA282E433900001120741
:0B36F7006CA283E43390000202076C19
:102C2900E4900349F0A3F0FFFE308110E024E0F0C6
:102C3900900349E034FFF00FBF00010E3082050F09
:102C4900BF00010E30831390034AE02420F0900363
:102C590049E03400F00FBF00010EEF4E70099004F7
:102C690037E0FEA3E0FF22AC06AD07900349E0FE82
:102C7900A3E0FF1207F5AC06AD07900437ECF0A30B
:022C8900EDF06C
:012C8B002226
:101B5200EFD3940640037FFF2274252F2FF8E6204F
:101B6200E5F4C2AFE64430F6D2AFAE0CEEC39F50FE
:101B7200210E74322EF8E6F908E618BE060274FF4A
:101B8200FDED69600909E71919F7090980F31616CD
:101B920080DAEED39F400405810581EED39F402277
:101BA20074322EF808E6F9EEB50C02A98118060681
:101BB200E6FDED6960091919E70909F71980F31EB5
:101BC20080D9EF2432F8E604F8EF2F0490389A9384
:091BD200F608EF2F93F67F0022C4
:101BDB00EFD3940640037FFF22EF232425F8E63052
:101BEB00E5F4C2AFE6548CF6D2AFE50CB5070A7438
:101BFB00322FF8E6F581021A5B502E74332FF8E67C
:101C0B00BF060274FFFD18E6F974322FF8FBE6FCF1
:101C1B00E96C6008A805E7F61D1980F4A803A60572
:101C2B001FE50CB507E37F002274332FF8E6FD1890
:101C3B0086010F74322FF8A601088604E50CB50750
:101C4B0002AC81ED6C60080D09A805E6F780F4E5A0
:091C5B000CB507DE89817F00222F
:101C64008FF0E4FFFEE50C232424F8C2A930F70D1D
:101C74007F08E6600B2DF660325030800730F106A5
:101C8400EDF660277E020830F010C2AFE610E725BB
:101C94000E30E20CD2AF7F048014C2AFE610E71519
:101CA40054EC4EF6D2AFD2A9021A5B7F0808EF4477
:0F1CB40083F4C2AF56C6D2AFD2A954804FFF22DD
:10009600EC4D6011E8497017ED33EC3304600DE464
:1000A600FCFFFEFD22E933E8330470F802035F1219
:1000B600032A58046009E4CC24815006285009021A
:1000C6000369284003020366C0E0EB4A7044B98026
:1000D60006D0E0FB020355EF4E701CBD8008EBFF17
:1000E600EAFEE9FD80EBE98DF0A4FEE5F002017F72
:1000F600E9CDF9EAFEEBFFEF89F0A4FCE5F0CE8945
:10010600F0A42EFFE435F0CD89F0A42DFEE435F001
:100116008067EF4E7005BD80D780C3EF8BF0A4AC2F
:10012600F0EE8BF0A42CFCE435F0F8EF8AF0A42C6A
:10013600E5F038FCE433CB8DF0A42CFCE5F03BF87D
:10014600EE8AF0A42CFCE5F038F8E433CF89F0A46D
:100156002CFCE5F038CF3400CE89F0A42FFFE5F073
:100166003EFEE433C98DF0A42EFEE5F039CD8AF0CB
:10017600A42FFFE5F03EFEE43DFD33D0E0FB500743
:100186000BBB000F020369EC2CFCEF33FFEE33FED2
:06019600ED33FD02034100
:10019C00020369EC5D046005E85904700302035F17
:1001AC0012032A580460F6EC4860F2EC7004FDFE71
:1001BC00FF22C860DB2481C85009C3986002500636
:1001CC000203669850CAF582E9294B4A7005AB8246
:1001DC0002035575F0007C1A7880C3EF9BEE9AED04
:1001EC0099400DC3EF9BFFEE9AFEED99FDE842F0AE
:1001FC00DC23ACF0D0E0FFD0E0FED0E0FDAB822001
:10020C00E7101BEB60BAEC2CFCEF33FFEE33FEED8A
:10021C0033FD020341E803F830E705C0F075F00048
:10022C00EF2FFFEE33FEED33FD40B830E7C280AA6E
:10023C0074F8CC6480CCC86480C8F58204604FC369
:10024C00EB9FF5F0EA9E42F0E99D42F0E89C45F008
:10025C00603C501DE5825FFFE582D313CB5BCBF492
:10026C002B5582FB50280ABA002409B900200880BB
:10027C001DE5825BFBE582D313CF5FCFF4C3132F55
:10028C005582FF50090EBE00050DBD00010CC3EBDD
:10029C009FF5F0EA9E42F0E99D42F0E89C45F06043
:0902AC0007CC4820E701B3EC2265
:1002B50075F020800E75F010800575F0087D007EC4
:1002C500007F003392D530D5031209ABEC334010D3
:1002D500EF33FFEE33FEED33FDEC33FCD5F0ED22CD
:0E02E500E5F0247EA2D513CC92E7CDCEFF2209
:1002F300EDD2E7CD33EC3392D524814006E4FFFE03
:10030300FDFC22FCE4CFCECDCC24E0501174FF8061
:10031300EDC3CC13CCCD13CDCE13CECF13CF0470FE
:07032300F030D5DE0209AB4A
:10114B00E51824B2F582E43403F583E00518229008
:10115B0003AF3019039003B2E475F001120A640275
:10116B0007142012E97F2ED2128018EF540F24900F
:10117B00D43440D4FF30160BEF24BFB41A00500305
:10118B002461FFE51960021519051CE51C700205A9
:10119B001B30190E9003AFE475F001120A64EF02D5
:1011AB00075A02008E7403D2198003E4C219F51892
:1011BB009003AF120A7BE4F519F51BF51CE51960DA
:1011CB00077F2012118E80F5751AFFC213C212C24F
:1011DB0014C215C217C218C21A12115AFF700D3061
:1011EB0019057F0012119FAF1CAE1B22B4255FC2E5
:1011FB00D5C21612115AFF24D0B40A00501A75F03A
:10120B000A781930D50508B6FF0106C6A426F620C4
:10121B00D5047002D21580D924CFB41A00EF500434
:10122B00C2E5D216021491D21380C6D21280C0D25C
:10123B001480BCD2D580BAD21780B47F2012118E05
:10124B002014077401B5190040F112114BFF121154
:10125B008E0211C8D21AD218809512114BFB1211A3
:10126B004BFA12114BF94A4B7006798F7A157BFFAB
:10127B0020142EE519602A7E008E827583001207DA
:10128B002D60060EEE651A70F0C2D5EBC0E0EAC019
:10129B00E0E9C0E0EE1214F2D0E0F9D0E0FAD0E0D1
:1012AB00FB120714FF60AAEBC0E0EAC0E0E9C0E064
:1012BB0012118ED0E02401F9D0E03400FAD0E0FB1B
:1012CB00E51A0460DCD51AD98087D21480A21214D7
:1012DB00D460F7E51A700104120374A91A600DE5C6
:1012EB001A600914F51A12157CEF60F3EA30E70265
:1012FB00F404C3995079EAF4251A0430E701E404A5
:10130B00F51A800D1214D460C1EA051A251A1203BE
:10131B0074EA9003DEF030E701E4251A04D51A04D1
:10132B00201701141214F2E4C0E012157C9003DEB6
:10133B00E0601320E70714F0121176802204F0D03E
:10134B00E014C0E07F00121176E51A600712116DF0
:10135B00151A800B30170312116DD0E00211C8D093
:10136B00E00480C41214D4609EE51A041203749036
:10137B0003DEEAF0E51A20170260010424041214BC
:01138B00F26F
:10138C0074FF04C0E012157C121176E51A201702C6
:10139C00600312116DD0E0B51AE87F4512118090F0
:1013AC0003DEE07F2B30E7047F2DF404C0E0121144
:1013BC008ED0E075F00A84C0F0121177D0E01211D3
:1013CC00770211C8791080027908C218C21A8008F5
:1013DC00D2D5790A8004790AC2D5E51A047002F5CF
:1013EC001AE4FAFDFEFF12114BFC7B0820131312BA
:1013FC00114BFD7B1030120A12114BFE12114BFFD8
:10140C007B20EC3382D592D55013C3E43012069F67
:10141C00FFE49EFEE42013039DFDE49CFCE4CBF86A
:10142C00C213EC700CCFCECDCCE824F8F870F3805E
:10143C0017C3EF33FFEE33FEED33FDEC33FCEB3330
:10144C00FB994002FB0FD8E9EB301305F8D0E0C450
:10145C0048B213C0E00AEC4D4E4F78207B0070C2AE
:10146C00EAB51A0040BCC0E01214F4D0F0D0E02071
:10147C001304C4C0E0C4B213C0F0121177D0F0D57D
:10148C00F0EB0211C8120A8412655313D0581236AD
:10149C004C12324213D44F13DC4413DC49124B432D
:1014AC0013E255130F46136F4512D94715AF50125F
:1014BC003A2D123E2E12612B124223125F201598E8
:1014CC002A11FA4800001259E51AB4FF03751A06DE
:1014DC0012114BFC12114BFD12114BFE12114BFF52
:1014EC009003D70203B1790AA2D52015143017093D
:1014FC00B910020404B9080104A2D5201802500145
:10150C00042014689214B519005034C0E07F2030C8
:10151C0015197F30A21472187217500F12154BC286
:10152C0014C218C217C21A7F30800F301703E9C0DB
:10153C00E012118E301703D0E0F9D0E0B519CC30A1
:10154C0017177F30B9100C12118E7F583016077F89
:10155C00788003B9080312118E3014057F2D021107
:10156C008E7F20201AF87F2B2018F322921480CF24
:10157C007F00B40700500B24D7F582E43403F583C5
:10158C00E0FF22286E756C6C2900D21312114B30BF
:10159C0013F8C213781930D50108F60211FA2D5040
:1015AC0043495812114B2403B405004001E4901533
:1015BC00AA9312117F743A12117FD2157519040275
:0215CC0013D03A
:10032A00E9D2E7C933E833F892D5EDD2E7CD33EC19
:07033A0033FC5002B2D52292
:10034100EC30E7100FBF000C0EBE00080DBD00041D
:100351000BEB6014A2D5EB13FCED92E7FD2274FFC9
:10036100FCFDFEFF22E480F8A2D574FF13FC7D8022
:03037100E480EF36
:10037400F920E73624F950037907E4F42402FBE575
:1003840082158270021583DBF6E024FB501BE960C2
:1003940014E4F0E582158270021583E004F0B40AD7
:0D03A40008E4F0D9EE7401F00A22C2D5225F
:1003B100ED33EC3392D5FA602AB4FF33EDC2E77B1B
:1003C100FF60067A0379D6E4227A0379DF20D50427
:1003D1007A0379DA224E614E002B494E46002D49AF
:1003E1004E4600E47A08F0A3DAFC7B00740722C0D1
:1003F10083C082ECC0E0EDC0E0EEC0E0EFC0E0EA17
:1004010075F010A4CAABF075F04DA42BFBE435F0E8
:10041100FCEA2410FAEB34C5FBEC34D9FCEDC2E75D
:10042100FF75F056A4F42411C5F0F434C58FF0A47F
:100431002AE5F03BE43CF020E7141205DED0E0FFB2
:10044100D0E0FED0E0FDD0E0FC12019F8014F40466
:100451001205DED0E0FFD0E0FED0E0FDD0E0FC12DE
:100461000096D082D083E0FAEDD2E7CD33EC33248D
:1004710082FBE4C3CF33CFCE33CECD33CD33DBF3E9
:100481007B0775F00A846004F0A31B0AE5F0F0A372
:100491008FF0740AA4FFACF08EF0740AA42CFEACA9
:1004A100F050010C8DF0740AA42CFDE435F0F0A39A
:0504B100DBDE740722F0
:1004B60002035FE86480F8E933E83360110460F012
:1004C600ED33EC337009E8FCE9FDEAFEEBFF2204AC
:1004D60060DED3EB9FEA9EE99DE8C2E78CF0C2F7A7
:1004E60095F0400CE8CCF8E9CDF9EACEFAEBCFFB73
:1004F60012032A85D0F05804700320D5B3E804709F
:10050600075002B2D502036992D5EC0460F7E4CC39
:10051600C0E0C398F8603B94186008400DD0E0FB3B
:10052600020341E4FBFAC9FC8028E830E406E4C98A
:10053600FBE4CAFCE830E305E4C9CACBFCE854078F
:100546006010F8C3E913F9EA13FAEB13FBEC13FC9A
:10055600D8F130F52FC3E49CFCEF9BFFEE9AFEED3D
:1005660099FDD0E0FBEF4E4D4C701222DB030203E7
:1005760066EC2CFCEF33FFEE33FEED33FDED30E79A
:10058600EB020341EF2BFFEE3AFEED39FDD0E0FB27
:1005960050130BBB0003020369ED13FDEE13FEEFD0
:0805A60013FFEC13FC020341FA
:1005AE003F8000004120000042C80000447A000055
:1005BE00461C400047C35000497424004B189680D7
:1005CE004CBEBC205A0E1BCA6753C21C749DC5AECE
:1005DE00FB60065407601C232312060CEB54386094
:1005EE00091205F8120607120096ECF8EDF9EEFA6C
:1005FE00EFCB22EB12060780F1543803241C900532
:10060E00AEFE93FC0EEE93FD0EEE930ECE93FF22F6
:0300000002297062
:0C297000787FE4F6D8FD7581380229B7A5
:10061E00E709F608DFFA8046E709F208DFFA803EBE
:10062E0088828C83E709F0A3DFFA8032E309F608AB
:10063E00DFFA8078E309F208DFFA807088828C8313
:10064E00E309F0A3DFFA806489828A83E0A3F608C7
:10065E00DFFA805889828A83E0A3F208DFFA804CA1
:10066E0080D280FA80C680D4806980F28033801078
:10067E0080A680EA809A80A880DA80E280CA8033E1
:10068E0089828A83ECFAE493A3C8C582C8CCC58359
:10069E00CCF0A3C8C582C8CCC583CCDFE9DEE78029
:1006AE000D89828A83E493A3F608DFF9ECFAA9F0A8
:1006BE00EDFB2289828A83ECFAE0A3C8C582C8CCFE
:1006CE00C583CCF0A3C8C582C8CCC583CCDFEADE17
:1006DE00E880DB89828A83E493A3F208DFF980CC79
:1006EE0088F0EF60010E4E60C388F0ED2402B40472
:1006FE000050B9F582EB2402B4040050AF23234519
:06070E00822390066E73C9
:10071400BB010689828A83E0225002E722BBFE02E3
:09072400E32289828A83E4932216
:10072D00BB010CE58229F582E5833AF583E0225081
:10073D0006E92582F8E622BBFE06E92582F8E222CB
:0D074D00E58229F582E5833AF583E49322E5
:10075A00BB010689828A83F0225002F722BBFE017E
:02076A00F32278
:10076C00F8BB010DE58229F582E5833AF583E8F0C3
:10077C00225006E92582C8F622BBFE05E92582C86F
:02078C00F22257
:10078E00EF8DF0A4A8F0CF8CF0A428CE8DF0A42E7F
:02079E00FE2239
:1007A000BC000BBE0029EF8DF084FFADF022E4CC3D
:1007B000F875F008EF2FFFEE33FEEC33FCEE9DEC06
:1007C000984005FCEE9DFE0FD5F0E9E4CEFD22ED4C
:1007D000F8F5F0EE8420D21CFEADF075F008EF2F96
:1007E000FFED33FD4007985006D5F0F222C398FD87
:0507F0000FD5F0EA2224
:1007F500C2D5EC30E709B2D5E4C39DFDE49CFCEE1F
:1008050030E715B2D5E4C39FFFE49EFE1207A0C3EF
:10081500E49DFDE49CFC80031207A030D507C3E4EA
:060825009FFFE49EFE228D
:10082B00BB010A89828A83E0F5F0A3E02250068798
:10083B00F009E71922BBFE07E3F5F009E31922895A
:0B084B00828A83E493F5F0740193228D
:10085600BB0110E58229F582E5833AF583E0F5F0E0
:10086600A3E0225009E92582F886F008E622BBFEBD
:100876000AE92582F8E2F5F008E222E5832AF58303
:08088600E993F5F0A3E99322C8
:10088E00E88FF0A4CC8BF0A42CFCE98EF0A42CFC09
:10089E008AF0EDA42CFCEA8EF0A4CDA8F08BF0A487
:1008AE002DCC3825F0FDE98FF0A42CCD35F0FCEBE6
:1008BE008EF0A4FEA9F0EB8FF0A4CFC5F02ECD39AB
:0F08CE00FEE43CFCEAA42DCE35F0FDE43CFC2218
:1008DD0075F008758200EF2FFFEE33FECD33CDCCD2
:1008ED0033CCC58233C5829BED9AEC99E582984055
:1008FD000CF582EE9BFEED9AFDEC99FC0FD5F0D632
:10090D00E4CEFBE4CDFAE4CCF9A88222B800C1B95B
:10091D000059BA002DEC8BF084CFCECDFCE5F0CB99
:10092D00F97818EF2FFFEE33FEED33FDEC33FCEBD2
:10093D0033FB10D703994004EB99FB0FD8E5E4F98D
:10094D00FA227818EF2FFFEE33FEED33FDEC33FC7A
:10095D00C933C910D7059BE99A4007EC9BFCE99A6E
:10096D00F90FD8E0E4C9FAE4CCFB2275F010EF2FB3
:10097D00FFEE33FEED33FDCC33CCC833C810D707B3
:10098D009BEC9AE899400AED9BFDEC9AFCE899F8EE
:0E099D000FD5F0DAE4CDFBE4CCFAE4C8F92281
:1031F000C2D5E830E70FB2D5E4C39BFBE49AFAE40A
:1032000099F9E498F8EC30E717B2D5123226120992
:1032100019E4C39BFBE49AFAE499F9E498F8800373
:1032200012091930D50DE4C39FFFE49EFEE49DFD15
:04323000E49CFC22FC
:0E09AB00C3E49FFFE49EFEE49DFDE49CFC225D
:1009B900EB9FF5F0EA9E42F0E99D42F0E89C45F094
:0109C900220B
:1009CA00E8600FECC313FCED13FDEE13FEEF13FF0B
:0309DA00D8F1222F
:1009DD00BB010789828A83020A275005E9F8020ABA
:0A09ED00E0BBFE05E9F8020AEC2267
:1009F700BB010DE58229F582E5833AF583020AB743
:100A07005007E92582F8020AAABBFE07E92582F802
:100A1700020AC3E58229F582E5833AF583020AD003
:0C0A2700ECF0A3EDF0A3EEF0A3EFF02242
:100A3300A8828583F0D083D082120A4A120A4A120E
:100A43000A4A120A4AE473E493A3C583C5F0C58333
:100A5300C8C582C8F0A3C583C5F0C583C8C582C80D
:010A63002270
:100A6400F8E0FBA3A3E0F925F0F0E582158270021B
:070A74001583E0FA38F022BF
:090A7B00EBF0A3EAF0A3E9F0227C
:100A8400D083D082F8E4937012740193700DA3A301
:100A940093F8740193F5828883E473740293686015
:060AA400EFA3A3A380DF15
:10297C00021B15E493A3F8E493A34003F68001F241
:10298C0008DFF48029E493A3F85407240CC8C3335C
:10299C00C4540F4420C8834004F456800146F6DF2B
:1029AC00E4800B0102040810204080903437E47E50
:1029BC00019360BCA3FF543F30E509541FFEE49320
:1029CC00A360010ECF54C025E060A840B8E493A3E7
:1029DC00FAE493A3F8E493A3C8C582C8CAC583CA12
:1029EC00F0A3C8C582C8CAC583CADFE9DEE780BECA
:013468000063
:0D0AAA00E6FB08E6F908E6FA08E6CBF822BC
:0C0AB700E0F8A3E0F9A3E0FAA3E0FB22C2
:0D0AC300E2FB08E2F908E2FA08E2CBF822B3
:100AD000E493F8740193F9740293FA740393FB227C
:0C0AE000ECF608EDF608EEF608EFF62242
:0C0AEC00ECF208EDF208EEF208EFF22246
:00000001FF
